{
  "contractName": "Allowance",
  "abi": [
    {
      "anonymous": false,
      "inputs": [
        {
          "indexed": true,
          "internalType": "address",
          "name": "previousOwner",
          "type": "address"
        },
        {
          "indexed": true,
          "internalType": "address",
          "name": "newOwner",
          "type": "address"
        }
      ],
      "name": "OwnershipTransferred",
      "type": "event"
    },
    {
      "anonymous": false,
      "inputs": [
        {
          "indexed": false,
          "internalType": "address",
          "name": "_user",
          "type": "address"
        },
        {
          "indexed": false,
          "internalType": "uint256",
          "name": "_size",
          "type": "uint256"
        }
      ],
      "name": "userAllowed",
      "type": "event"
    },
    {
      "inputs": [],
      "name": "owner",
      "outputs": [
        {
          "internalType": "address",
          "name": "",
          "type": "address"
        }
      ],
      "stateMutability": "view",
      "type": "function"
    },
    {
      "inputs": [
        {
          "internalType": "address",
          "name": "newOwner",
          "type": "address"
        }
      ],
      "name": "transferOwnership",
      "outputs": [],
      "stateMutability": "nonpayable",
      "type": "function"
    },
    {
      "inputs": [],
      "name": "renounceOwnership",
      "outputs": [],
      "stateMutability": "view",
      "type": "function"
    },
    {
      "inputs": [],
      "name": "getAllowance",
      "outputs": [
        {
          "internalType": "uint256",
          "name": "",
          "type": "uint256"
        }
      ],
      "stateMutability": "view",
      "type": "function"
    },
    {
      "inputs": [
        {
          "internalType": "address",
          "name": "_address",
          "type": "address"
        },
        {
          "internalType": "uint256",
          "name": "_size",
          "type": "uint256"
        }
      ],
      "name": "allowUser",
      "outputs": [],
      "stateMutability": "nonpayable",
      "type": "function"
    }
  ],
  "bytecode": "0x608060405234801561001057600080fd5b5060006100216100c460201b60201c565b9050806000806101000a81548173ffffffffffffffffffffffffffffffffffffffff021916908373ffffffffffffffffffffffffffffffffffffffff1602179055508073ffffffffffffffffffffffffffffffffffffffff16600073ffffffffffffffffffffffffffffffffffffffff167f8be0079c531659141344cd1fd0a4f28419497f9722a3daafe3b4186f6b6457e060405160405180910390a3506100cc565b600033905090565b6107d6806100db6000396000f3fe608060405234801561001057600080fd5b50600436106100575760003560e01c8063715018a61461005c5780638da5cb5b14610066578063973e9b8b14610084578063df6f5140146100a2578063f2fde38b146100be575b600080fd5b6100646100da565b005b61006e610191565b60405161007b91906105c5565b60405180910390f35b61008c6101ba565b6040516100999190610669565b60405180910390f35b6100bc60048036038101906100b79190610502565b610201565b005b6100d860048036038101906100d391906104d9565b6102fe565b005b6100e26104a7565b73ffffffffffffffffffffffffffffffffffffffff16610100610191565b73ffffffffffffffffffffffffffffffffffffffff1614610156576040517f08c379a000000000000000000000000000000000000000000000000000000000815260040161014d90610649565b60405180910390fd5b6040517f08c379a000000000000000000000000000000000000000000000000000000000815260040161018890610629565b60405180910390fd5b60008060009054906101000a900473ffffffffffffffffffffffffffffffffffffffff16905090565b6000600160003373ffffffffffffffffffffffffffffffffffffffff1673ffffffffffffffffffffffffffffffffffffffff16815260200190815260200160002054905090565b6102096104a7565b73ffffffffffffffffffffffffffffffffffffffff16610227610191565b73ffffffffffffffffffffffffffffffffffffffff161461027d576040517f08c379a000000000000000000000000000000000000000000000000000000000815260040161027490610649565b60405180910390fd5b7ffa1201c39d3db66038cfa3348b347ccb3a6cc9045a41145f32e095a9edb3f15082826040516102ae9291906105e0565b60405180910390a180600160008473ffffffffffffffffffffffffffffffffffffffff1673ffffffffffffffffffffffffffffffffffffffff168152602001908152602001600020819055505050565b6103066104a7565b73ffffffffffffffffffffffffffffffffffffffff16610324610191565b73ffffffffffffffffffffffffffffffffffffffff161461037a576040517f08c379a000000000000000000000000000000000000000000000000000000000815260040161037190610649565b60405180910390fd5b600073ffffffffffffffffffffffffffffffffffffffff168173ffffffffffffffffffffffffffffffffffffffff1614156103ea576040517f08c379a00000000000000000000000000000000000000000000000000000000081526004016103e190610609565b60405180910390fd5b8073ffffffffffffffffffffffffffffffffffffffff1660008054906101000a900473ffffffffffffffffffffffffffffffffffffffff1673ffffffffffffffffffffffffffffffffffffffff167f8be0079c531659141344cd1fd0a4f28419497f9722a3daafe3b4186f6b6457e060405160405180910390a3806000806101000a81548173ffffffffffffffffffffffffffffffffffffffff021916908373ffffffffffffffffffffffffffffffffffffffff16021790555050565b600033905090565b6000813590506104be81610772565b92915050565b6000813590506104d381610789565b92915050565b6000602082840312156104eb57600080fd5b60006104f9848285016104af565b91505092915050565b6000806040838503121561051557600080fd5b6000610523858286016104af565b9250506020610534858286016104c4565b9150509250929050565b61054781610695565b82525050565b600061055a602683610684565b9150610565826106d1565b604082019050919050565b600061057d601c83610684565b915061058882610720565b602082019050919050565b60006105a0602083610684565b91506105ab82610749565b602082019050919050565b6105bf816106c7565b82525050565b60006020820190506105da600083018461053e565b92915050565b60006040820190506105f5600083018561053e565b61060260208301846105b6565b9392505050565b600060208201905081810360008301526106228161054d565b9050919050565b6000602082019050818103600083015261064281610570565b9050919050565b6000602082019050818103600083015261066281610593565b9050919050565b600060208201905061067e60008301846105b6565b92915050565b600082825260208201905092915050565b60006106a0826106a7565b9050919050565b600073ffffffffffffffffffffffffffffffffffffffff82169050919050565b6000819050919050565b7f4f776e61626c653a206e6577206f776e657220697320746865207a65726f206160008201527f6464726573730000000000000000000000000000000000000000000000000000602082015250565b7f63616e27742072656e6f756e63654f776e657273686970206865726500000000600082015250565b7f4f776e61626c653a2063616c6c6572206973206e6f7420746865206f776e6572600082015250565b61077b81610695565b811461078657600080fd5b50565b610792816106c7565b811461079d57600080fd5b5056fea26469706673582212204ba9e5e448aaba913c2cf9fdae7c8f7215b770bea1cbd5481253e83346dbe78264736f6c63430008040033",
  "immutableReferences": {},
  "source": "// \"SPDX-License-Identifier: MIT\"\n\npragma solidity ^0.8.4;\n\n// import \"https://github.com/OpenZeppelin/openzeppelin-contracts/blob/master/contracts/access/Ownable.sol\";\nimport \"@openzeppelin/contracts/access/Ownable.sol\";\n\ncontract Allowance is Ownable {\n    \n    event userAllowed(address _user, uint _size);\n    \n    mapping (address => uint) allowance;\n    \n    modifier ownerOrAllowed() {\n        require(address(msg.sender) == owner() || allowance[msg.sender] > 0, \"You are not allowed\");\n        _;\n    }\n    \n    function renounceOwnership() public view override onlyOwner {\n        revert(\"can't renounceOwnership here\");\n    }\n    \n    function getAllowance() public view returns (uint) {\n        return allowance[msg.sender];\n    }\n    \n    function allowUser(address _address, uint _size) public onlyOwner {\n        emit userAllowed(_address, _size);\n        allowance[_address] =  _size;\n    }\n}\n",
  "sourcePath": "/home/asouville/solidity-project/SharedWallet/contracts/Allowance.sol",
  "compiler": {
    "name": "solc",
    "version": "0.8.4+commit.c7e474f2.Emscripten.clang"
  },
  "schemaVersion": "3.4.1",
  "updatedAt": "2021-06-18T13:26:41.610Z",
  "devdoc": {
    "kind": "dev",
    "methods": {
      "owner()": {
        "details": "Returns the address of the current owner."
      },
      "renounceOwnership()": {
        "details": "Leaves the contract without owner. It will not be possible to call `onlyOwner` functions anymore. Can only be called by the current owner. NOTE: Renouncing ownership will leave the contract without an owner, thereby removing any functionality that is only available to the owner."
      },
      "transferOwnership(address)": {
        "details": "Transfers ownership of the contract to a new account (`newOwner`). Can only be called by the current owner."
      }
    },
    "version": 1
  },
  "userdoc": {
    "kind": "user",
    "methods": {},
    "version": 1
  }
}