{
  "contractName": "SharedWallet",
  "abi": [
    {
      "anonymous": false,
      "inputs": [
        {
          "indexed": false,
          "internalType": "address",
          "name": "_from",
          "type": "address"
        },
        {
          "indexed": false,
          "internalType": "uint256",
          "name": "_amount",
          "type": "uint256"
        }
      ],
      "name": "MoneyDeposit",
      "type": "event"
    },
    {
      "anonymous": false,
      "inputs": [
        {
          "indexed": false,
          "internalType": "address",
          "name": "_to",
          "type": "address"
        },
        {
          "indexed": false,
          "internalType": "uint256",
          "name": "_amount",
          "type": "uint256"
        }
      ],
      "name": "MoneyWithdraw",
      "type": "event"
    },
    {
      "anonymous": false,
      "inputs": [
        {
          "indexed": true,
          "internalType": "address",
          "name": "previousOwner",
          "type": "address"
        },
        {
          "indexed": true,
          "internalType": "address",
          "name": "newOwner",
          "type": "address"
        }
      ],
      "name": "OwnershipTransferred",
      "type": "event"
    },
    {
      "anonymous": false,
      "inputs": [
        {
          "indexed": false,
          "internalType": "address",
          "name": "_user",
          "type": "address"
        },
        {
          "indexed": false,
          "internalType": "uint256",
          "name": "_size",
          "type": "uint256"
        }
      ],
      "name": "userAllowed",
      "type": "event"
    },
    {
      "inputs": [
        {
          "internalType": "address",
          "name": "_address",
          "type": "address"
        },
        {
          "internalType": "uint256",
          "name": "_size",
          "type": "uint256"
        }
      ],
      "name": "allowUser",
      "outputs": [],
      "stateMutability": "nonpayable",
      "type": "function"
    },
    {
      "inputs": [],
      "name": "getAllowance",
      "outputs": [
        {
          "internalType": "uint256",
          "name": "",
          "type": "uint256"
        }
      ],
      "stateMutability": "view",
      "type": "function"
    },
    {
      "inputs": [],
      "name": "owner",
      "outputs": [
        {
          "internalType": "address",
          "name": "",
          "type": "address"
        }
      ],
      "stateMutability": "view",
      "type": "function"
    },
    {
      "inputs": [],
      "name": "renounceOwnership",
      "outputs": [],
      "stateMutability": "view",
      "type": "function"
    },
    {
      "inputs": [
        {
          "internalType": "address",
          "name": "newOwner",
          "type": "address"
        }
      ],
      "name": "transferOwnership",
      "outputs": [],
      "stateMutability": "nonpayable",
      "type": "function"
    },
    {
      "stateMutability": "payable",
      "type": "receive"
    },
    {
      "inputs": [],
      "name": "deposit",
      "outputs": [],
      "stateMutability": "payable",
      "type": "function"
    },
    {
      "inputs": [
        {
          "internalType": "uint256",
          "name": "_amount",
          "type": "uint256"
        }
      ],
      "name": "withdraw",
      "outputs": [],
      "stateMutability": "nonpayable",
      "type": "function"
    },
    {
      "inputs": [],
      "name": "getBalance",
      "outputs": [
        {
          "internalType": "uint256",
          "name": "",
          "type": "uint256"
        }
      ],
      "stateMutability": "view",
      "type": "function"
    }
  ],
  "bytecode": "0x608060405234801561001057600080fd5b5060006100216100c460201b60201c565b9050806000806101000a81548173ffffffffffffffffffffffffffffffffffffffff021916908373ffffffffffffffffffffffffffffffffffffffff1602179055508073ffffffffffffffffffffffffffffffffffffffff16600073ffffffffffffffffffffffffffffffffffffffff167f8be0079c531659141344cd1fd0a4f28419497f9722a3daafe3b4186f6b6457e060405160405180910390a3506100cc565b600033905090565b610cf4806100db6000396000f3fe60806040526004361061007f5760003560e01c8063973e9b8b1161004e578063973e9b8b14610129578063d0e30db014610154578063df6f51401461015e578063f2fde38b146101875761008e565b806312065fe0146100935780632e1a7d4d146100be578063715018a6146100e75780638da5cb5b146100fe5761008e565b3661008e5761008c6101b0565b005b600080fd5b34801561009f57600080fd5b506100a86101eb565b6040516100b59190610a9c565b60405180910390f35b3480156100ca57600080fd5b506100e560048036038101906100e0919061088a565b6101f3565b005b3480156100f357600080fd5b506100fc610410565b005b34801561010a57600080fd5b506101136104c7565b604051610120919061098f565b60405180910390f35b34801561013557600080fd5b5061013e6104f0565b60405161014b9190610a9c565b60405180910390f35b61015c6101b0565b005b34801561016a57600080fd5b506101856004803603810190610180919061084e565b610537565b005b34801561019357600080fd5b506101ae60048036038101906101a99190610825565b610634565b005b7ff46b9de9ddc706dc26b31291ea8e595c65c88041987f5f9c67c3916fb882d8b833346040516101e19291906109d3565b60405180910390a1565b600047905090565b6101fb6104c7565b73ffffffffffffffffffffffffffffffffffffffff163373ffffffffffffffffffffffffffffffffffffffff16148061027357506000600160003373ffffffffffffffffffffffffffffffffffffffff1673ffffffffffffffffffffffffffffffffffffffff16815260200190815260200160002054115b6102b2576040517f08c379a00000000000000000000000000000000000000000000000000000000081526004016102a990610a1c565b60405180910390fd5b600160003373ffffffffffffffffffffffffffffffffffffffff1673ffffffffffffffffffffffffffffffffffffffff16815260200190815260200160002054811115610334576040517f08c379a000000000000000000000000000000000000000000000000000000000815260040161032b90610a5c565b60405180910390fd5b61038681600160003373ffffffffffffffffffffffffffffffffffffffff1673ffffffffffffffffffffffffffffffffffffffff168152602001908152602001600020546107dd90919063ffffffff16565b5060003390507fb4d14a0184d6b483ad4efc91bdd4f99170c66910145bf6c4850ba404bffdcbed81836040516103bd9291906109aa565b60405180910390a18073ffffffffffffffffffffffffffffffffffffffff166108fc839081150290604051600060405180830381858888f1935050505015801561040b573d6000803e3d6000fd5b505050565b6104186107f3565b73ffffffffffffffffffffffffffffffffffffffff166104366104c7565b73ffffffffffffffffffffffffffffffffffffffff161461048c576040517f08c379a000000000000000000000000000000000000000000000000000000000815260040161048390610a7c565b60405180910390fd5b6040517f08c379a00000000000000000000000000000000000000000000000000000000081526004016104be90610a3c565b60405180910390fd5b60008060009054906101000a900473ffffffffffffffffffffffffffffffffffffffff16905090565b6000600160003373ffffffffffffffffffffffffffffffffffffffff1673ffffffffffffffffffffffffffffffffffffffff16815260200190815260200160002054905090565b61053f6107f3565b73ffffffffffffffffffffffffffffffffffffffff1661055d6104c7565b73ffffffffffffffffffffffffffffffffffffffff16146105b3576040517f08c379a00000000000000000000000000000000000000000000000000000000081526004016105aa90610a7c565b60405180910390fd5b7ffa1201c39d3db66038cfa3348b347ccb3a6cc9045a41145f32e095a9edb3f15082826040516105e49291906109d3565b60405180910390a180600160008473ffffffffffffffffffffffffffffffffffffffff1673ffffffffffffffffffffffffffffffffffffffff168152602001908152602001600020819055505050565b61063c6107f3565b73ffffffffffffffffffffffffffffffffffffffff1661065a6104c7565b73ffffffffffffffffffffffffffffffffffffffff16146106b0576040517f08c379a00000000000000000000000000000000000000000000000000000000081526004016106a790610a7c565b60405180910390fd5b600073ffffffffffffffffffffffffffffffffffffffff168173ffffffffffffffffffffffffffffffffffffffff161415610720576040517f08c379a0000000000000000000000000000000000000000000000000000000008152600401610717906109fc565b60405180910390fd5b8073ffffffffffffffffffffffffffffffffffffffff1660008054906101000a900473ffffffffffffffffffffffffffffffffffffffff1673ffffffffffffffffffffffffffffffffffffffff167f8be0079c531659141344cd1fd0a4f28419497f9722a3daafe3b4186f6b6457e060405160405180910390a3806000806101000a81548173ffffffffffffffffffffffffffffffffffffffff021916908373ffffffffffffffffffffffffffffffffffffffff16021790555050565b600081836107eb9190610ac8565b905092915050565b600033905090565b60008135905061080a81610c90565b92915050565b60008135905061081f81610ca7565b92915050565b60006020828403121561083757600080fd5b6000610845848285016107fb565b91505092915050565b6000806040838503121561086157600080fd5b600061086f858286016107fb565b925050602061088085828601610810565b9150509250929050565b60006020828403121561089c57600080fd5b60006108aa84828501610810565b91505092915050565b6108bc81610b38565b82525050565b6108cb81610afc565b82525050565b60006108de602683610ab7565b91506108e982610b9d565b604082019050919050565b6000610901601383610ab7565b915061090c82610bec565b602082019050919050565b6000610924601c83610ab7565b915061092f82610c15565b602082019050919050565b6000610947601183610ab7565b915061095282610c3e565b602082019050919050565b600061096a602083610ab7565b915061097582610c67565b602082019050919050565b61098981610b2e565b82525050565b60006020820190506109a460008301846108c2565b92915050565b60006040820190506109bf60008301856108b3565b6109cc6020830184610980565b9392505050565b60006040820190506109e860008301856108c2565b6109f56020830184610980565b9392505050565b60006020820190508181036000830152610a15816108d1565b9050919050565b60006020820190508181036000830152610a35816108f4565b9050919050565b60006020820190508181036000830152610a5581610917565b9050919050565b60006020820190508181036000830152610a758161093a565b9050919050565b60006020820190508181036000830152610a958161095d565b9050919050565b6000602082019050610ab16000830184610980565b92915050565b600082825260208201905092915050565b6000610ad382610b2e565b9150610ade83610b2e565b925082821015610af157610af0610b6e565b5b828203905092915050565b6000610b0782610b0e565b9050919050565b600073ffffffffffffffffffffffffffffffffffffffff82169050919050565b6000819050919050565b6000610b4382610b4a565b9050919050565b6000610b5582610b5c565b9050919050565b6000610b6782610b0e565b9050919050565b7f4e487b7100000000000000000000000000000000000000000000000000000000600052601160045260246000fd5b7f4f776e61626c653a206e6577206f776e657220697320746865207a65726f206160008201527f6464726573730000000000000000000000000000000000000000000000000000602082015250565b7f596f7520617265206e6f7420616c6c6f77656400000000000000000000000000600082015250565b7f63616e27742072656e6f756e63654f776e657273686970206865726500000000600082015250565b7f56616c7565206e6f7420616c6c6f776564000000000000000000000000000000600082015250565b7f4f776e61626c653a2063616c6c6572206973206e6f7420746865206f776e6572600082015250565b610c9981610afc565b8114610ca457600080fd5b50565b610cb081610b2e565b8114610cbb57600080fd5b5056fea2646970667358221220572150e7c7b6e167ee5a75415490e059ecfba93c5cb7d9373600f3c38dd4441964736f6c63430008040033",
  "immutableReferences": {},
  "source": "// \"SPDX-License-Identifier: MIT\"\n\npragma solidity ^0.8.4;\n\nimport \"./Allowance.sol\";\n// import \"https://github.com/OpenZeppelin/openzeppelin-contracts/blob/master/contracts/utils/math/SafeMath.sol\";\nimport \"@openzeppelin/contracts/utils/math/SafeMath.sol\";\n\ncontract SharedWallet is Allowance {\n    \n    using SafeMath for uint;\n    \n    event MoneyDeposit(address _from, uint _amount);\n    event MoneyWithdraw(address _to, uint _amount);\n    \n    receive() external payable {\n        deposit();  \n    }\n    \n    function deposit() payable public {\n        emit MoneyDeposit(msg.sender, msg.value);\n    }\n    \n    function withdraw(uint _amount) public ownerOrAllowed {\n        require(_amount <= allowance[msg.sender], \"Value not allowed\");\n        allowance[msg.sender].sub(_amount);\n        address payable _to = payable(msg.sender) ; \n        emit MoneyWithdraw(_to, _amount);\n        _to.transfer(_amount);\n    }\n    \n    function getBalance() public view returns (uint){\n        return address(this).balance;\n    }\n}\n",
  "sourcePath": "/home/asouville/solidity-project/SharedWallet/contracts/SharedWallet.sol",
  "compiler": {
    "name": "solc",
    "version": "0.8.4+commit.c7e474f2.Emscripten.clang"
  },
  "schemaVersion": "3.4.1",
  "updatedAt": "2021-06-18T13:26:41.612Z",
  "devdoc": {
    "kind": "dev",
    "methods": {
      "owner()": {
        "details": "Returns the address of the current owner."
      },
      "renounceOwnership()": {
        "details": "Leaves the contract without owner. It will not be possible to call `onlyOwner` functions anymore. Can only be called by the current owner. NOTE: Renouncing ownership will leave the contract without an owner, thereby removing any functionality that is only available to the owner."
      },
      "transferOwnership(address)": {
        "details": "Transfers ownership of the contract to a new account (`newOwner`). Can only be called by the current owner."
      }
    },
    "version": 1
  },
  "userdoc": {
    "kind": "user",
    "methods": {},
    "version": 1
  }
}